{
  "contractName": "Manager",
  "abi": [
    {
      "constant": true,
      "inputs": [
        {
          "name": "",
          "type": "address"
        }
      ],
      "name": "InvestmentAccounts",
      "outputs": [
        {
          "name": "",
          "type": "address"
        }
      ],
      "payable": false,
      "stateMutability": "view",
      "type": "function"
    },
    {
      "constant": false,
      "inputs": [],
      "name": "createInvestmentAccount",
      "outputs": [],
      "payable": true,
      "stateMutability": "payable",
      "type": "function"
    },
    {
      "constant": false,
      "inputs": [
        {
          "name": "_shareName",
          "type": "string"
        }
      ],
      "name": "query",
      "outputs": [
        {
          "name": "",
          "type": "uint256"
        }
      ],
      "payable": true,
      "stateMutability": "payable",
      "type": "function"
    },
    {
      "constant": false,
      "inputs": [
        {
          "name": "_debitVal",
          "type": "uint256"
        },
        {
          "name": "_shareName",
          "type": "string"
        },
        {
          "name": "_amount",
          "type": "uint256"
        }
      ],
      "name": "sellAssets",
      "outputs": [],
      "payable": true,
      "stateMutability": "payable",
      "type": "function"
    },
    {
      "constant": false,
      "inputs": [
        {
          "name": "_amount",
          "type": "uint256"
        }
      ],
      "name": "withdrawAmount",
      "outputs": [],
      "payable": true,
      "stateMutability": "payable",
      "type": "function"
    },
    {
      "constant": false,
      "inputs": [
        {
          "name": "_creditVal",
          "type": "uint256"
        },
        {
          "name": "_shareName",
          "type": "string"
        },
        {
          "name": "_amount",
          "type": "uint256"
        }
      ],
      "name": "buyAssets",
      "outputs": [],
      "payable": true,
      "stateMutability": "payable",
      "type": "function"
    },
    {
      "constant": true,
      "inputs": [],
      "name": "getAssetPortfolio",
      "outputs": [
        {
          "components": [
            {
              "name": "shareName",
              "type": "string"
            },
            {
              "name": "numberOfUnits",
              "type": "uint256"
            }
          ],
          "name": "",
          "type": "tuple[]"
        }
      ],
      "payable": false,
      "stateMutability": "view",
      "type": "function"
    },
    {
      "constant": true,
      "inputs": [],
      "name": "getContractBalance",
      "outputs": [
        {
          "name": "",
          "type": "uint256"
        }
      ],
      "payable": false,
      "stateMutability": "view",
      "type": "function"
    },
    {
      "constant": true,
      "inputs": [],
      "name": "getInvestmentAccount",
      "outputs": [
        {
          "name": "",
          "type": "address"
        }
      ],
      "payable": false,
      "stateMutability": "view",
      "type": "function"
    },
    {
      "constant": true,
      "inputs": [],
      "name": "getTransactionsHistory",
      "outputs": [
        {
          "components": [
            {
              "name": "shareName",
              "type": "string"
            },
            {
              "name": "NumOfUnits",
              "type": "uint256"
            },
            {
              "name": "action",
              "type": "string"
            },
            {
              "name": "Date",
              "type": "uint256"
            },
            {
              "name": "Status",
              "type": "string"
            },
            {
              "name": "amount",
              "type": "uint256"
            }
          ],
          "name": "",
          "type": "tuple[]"
        }
      ],
      "payable": false,
      "stateMutability": "view",
      "type": "function"
    },
    {
      "constant": true,
      "inputs": [],
      "name": "getInvestmentAccountBalance",
      "outputs": [
        {
          "name": "",
          "type": "uint256"
        }
      ],
      "payable": false,
      "stateMutability": "view",
      "type": "function"
    }
  ],
  "bytecode": "0x608060405234801561001057600080fd5b50613785806100206000396000f3fe60806040526004361061009c5760003560e01c806345a6b0441161006457806345a6b044146101395780636f9fb98a146101765780637c261929146101a1578063c2ea2628146101d1578063d288645e146101fc578063f7e763ff146102275761009c565b80630562b9f7146100a157806309005228146100bd5780630b996728146100e8578063170ff114146101045780633df08d661461010e575b600080fd5b6100bb60048036036100b6919081019061103c565b610243565b005b3480156100c957600080fd5b506100d2610311565b6040516100df9190611524565b60405180910390f35b61010260048036036100fd919081019061108e565b6103f9565b005b61010c61050c565b005b34801561011a57600080fd5b506101236105b9565b6040516101309190611546565b60405180910390f35b34801561014557600080fd5b50610160600480360361015b9190810190610f01565b6106a1565b60405161016d919061158a565b60405180910390f35b34801561018257600080fd5b5061018b6106d4565b6040516101989190611661565b60405180910390f35b6101bb60048036036101b69190810190610ffb565b6107b7565b6040516101c89190611661565b60405180910390f35b3480156101dd57600080fd5b506101e66107fd565b6040516101f39190611661565b60405180910390f35b34801561020857600080fd5b506102116108e0565b60405161021e919061158a565b60405180910390f35b610241600480360361023c919081019061108e565b610946565b005b6000803373ffffffffffffffffffffffffffffffffffffffff1673ffffffffffffffffffffffffffffffffffffffff16815260200190815260200160002060009054906101000a900473ffffffffffffffffffffffffffffffffffffffff1673ffffffffffffffffffffffffffffffffffffffff1663736fe56533836040518363ffffffff1660e01b81526004016102dc9291906114fb565b600060405180830381600087803b1580156102f657600080fd5b505af115801561030a573d6000803e3d6000fd5b5050505050565b60606000803373ffffffffffffffffffffffffffffffffffffffff1673ffffffffffffffffffffffffffffffffffffffff16815260200190815260200160002060009054906101000a900473ffffffffffffffffffffffffffffffffffffffff1673ffffffffffffffffffffffffffffffffffffffff1663090052286040518163ffffffff1660e01b815260040160006040518083038186803b1580156103b757600080fd5b505afa1580156103cb573d6000803e3d6000fd5b505050506040513d6000823e3d601f19601f820116820180604052506103f49190810190610f2a565b905090565b6000803373ffffffffffffffffffffffffffffffffffffffff1673ffffffffffffffffffffffffffffffffffffffff16815260200190815260200160002060009054906101000a900473ffffffffffffffffffffffffffffffffffffffff1673ffffffffffffffffffffffffffffffffffffffff1663797b2da53484866040518463ffffffff1660e01b81526004016104939291906115a5565b6000604051808303818588803b1580156104ac57600080fd5b505af11580156104c0573d6000803e3d6000fd5b5050505050803414610507576040517f08c379a00000000000000000000000000000000000000000000000000000000081526004016104fe90611641565b60405180910390fd5b505050565b600060405161051a90610bb3565b604051809103906000f080158015610536573d6000803e3d6000fd5b509050806000803373ffffffffffffffffffffffffffffffffffffffff1673ffffffffffffffffffffffffffffffffffffffff16815260200190815260200160002060006101000a81548173ffffffffffffffffffffffffffffffffffffffff021916908373ffffffffffffffffffffffffffffffffffffffff16021790555050565b60606000803373ffffffffffffffffffffffffffffffffffffffff1673ffffffffffffffffffffffffffffffffffffffff16815260200190815260200160002060009054906101000a900473ffffffffffffffffffffffffffffffffffffffff1673ffffffffffffffffffffffffffffffffffffffff16633df08d666040518163ffffffff1660e01b815260040160006040518083038186803b15801561065f57600080fd5b505afa158015610673573d6000803e3d6000fd5b505050506040513d6000823e3d601f19601f8201168201806040525061069c9190810190610f6b565b905090565b60006020528060005260406000206000915054906101000a900473ffffffffffffffffffffffffffffffffffffffff1681565b60008060003373ffffffffffffffffffffffffffffffffffffffff1673ffffffffffffffffffffffffffffffffffffffff16815260200190815260200160002060009054906101000a900473ffffffffffffffffffffffffffffffffffffffff1673ffffffffffffffffffffffffffffffffffffffff16636f9fb98a6040518163ffffffff1660e01b815260040160206040518083038186803b15801561077a57600080fd5b505afa15801561078e573d6000803e3d6000fd5b505050506040513d601f19601f820116820180604052506107b29190810190611065565b905090565b60006107f68273a24df0420de1f3b8d740a52aaeb9d55d6d64478e73ffffffffffffffffffffffffffffffffffffffff16610a1a90919063ffffffff16565b9050919050565b60008060003373ffffffffffffffffffffffffffffffffffffffff1673ffffffffffffffffffffffffffffffffffffffff16815260200190815260200160002060009054906101000a900473ffffffffffffffffffffffffffffffffffffffff1673ffffffffffffffffffffffffffffffffffffffff166348aa461a6040518163ffffffff1660e01b815260040160206040518083038186803b1580156108a357600080fd5b505afa1580156108b7573d6000803e3d6000fd5b505050506040513d601f19601f820116820180604052506108db9190810190611065565b905090565b60008060003373ffffffffffffffffffffffffffffffffffffffff1673ffffffffffffffffffffffffffffffffffffffff16815260200190815260200160002060009054906101000a900473ffffffffffffffffffffffffffffffffffffffff16905090565b6000803373ffffffffffffffffffffffffffffffffffffffff1673ffffffffffffffffffffffffffffffffffffffff16815260200190815260200160002060009054906101000a900473ffffffffffffffffffffffffffffffffffffffff1673ffffffffffffffffffffffffffffffffffffffff1663664a8198838584336040518563ffffffff1660e01b81526004016109e394939291906115d5565b600060405180830381600087803b1580156109fd57600080fd5b505af1158015610a11573d6000803e3d6000fd5b50505050505050565b60008060008473ffffffffffffffffffffffffffffffffffffffff1663ed815d838673ffffffffffffffffffffffffffffffffffffffff1663b0667cf86040518163ffffffff1660e01b815260040160206040518083038186803b158015610a8157600080fd5b505afa158015610a95573d6000803e3d6000fd5b505050506040513d601f19601f82011682018060405250610ab99190810190611065565b86604051602001610aca91906114d9565b6040516020818303038152906040526040518363ffffffff1660e01b8152600401610af59190611568565b6060604051808303818588803b158015610b0e57600080fd5b505af1158015610b22573d6000803e3d6000fd5b50505050506040513d601f19601f82011682018060405250610b479190810190610fac565b925050915060016003811115610b5957fe5b816003811115610b6557fe5b14610ba5576040517f08c379a0000000000000000000000000000000000000000000000000000000008152600401610b9c90611621565b60405180910390fd5b8160001c9250505092915050565b611dfc8061194783390190565b600081359050610bcf816118f1565b92915050565b600082601f830112610be657600080fd5b8151610bf9610bf4826116a9565b61167c565b9150818183526020840193506020810190508360005b83811015610c3f5781518601610c258882610d8f565b845260208401935060208301925050600181019050610c0f565b5050505092915050565b600082601f830112610c5a57600080fd5b8151610c6d610c68826116d1565b61167c565b9150818183526020840193506020810190508360005b83811015610cb35781518601610c998882610df3565b845260208401935060208301925050600181019050610c83565b5050505092915050565b600081519050610ccc81611908565b92915050565b600081519050610ce18161191f565b92915050565b600082601f830112610cf857600080fd5b8151610d0b610d06826116f9565b61167c565b91508082526020830160208301858383011115610d2757600080fd5b610d328382846118ad565b50505092915050565b600082601f830112610d4c57600080fd5b8135610d5f610d5a82611725565b61167c565b91508082526020830160208301858383011115610d7b57600080fd5b610d8683828461189e565b50505092915050565b600060408284031215610da157600080fd5b610dab604061167c565b9050600082015167ffffffffffffffff811115610dc757600080fd5b610dd384828501610ce7565b6000830152506020610de784828501610eec565b60208301525092915050565b600060c08284031215610e0557600080fd5b610e0f60c061167c565b9050600082015167ffffffffffffffff811115610e2b57600080fd5b610e3784828501610ce7565b6000830152506020610e4b84828501610eec565b602083015250604082015167ffffffffffffffff811115610e6b57600080fd5b610e7784828501610ce7565b6040830152506060610e8b84828501610eec565b606083015250608082015167ffffffffffffffff811115610eab57600080fd5b610eb784828501610ce7565b60808301525060a0610ecb84828501610eec565b60a08301525092915050565b600081359050610ee68161192f565b92915050565b600081519050610efb8161192f565b92915050565b600060208284031215610f1357600080fd5b6000610f2184828501610bc0565b91505092915050565b600060208284031215610f3c57600080fd5b600082015167ffffffffffffffff811115610f5657600080fd5b610f6284828501610bd5565b91505092915050565b600060208284031215610f7d57600080fd5b600082015167ffffffffffffffff811115610f9757600080fd5b610fa384828501610c49565b91505092915050565b600080600060608486031215610fc157600080fd5b6000610fcf86828701610cbd565b9350506020610fe086828701610eec565b9250506040610ff186828701610cd2565b9150509250925092565b60006020828403121561100d57600080fd5b600082013567ffffffffffffffff81111561102757600080fd5b61103384828501610d3b565b91505092915050565b60006020828403121561104e57600080fd5b600061105c84828501610ed7565b91505092915050565b60006020828403121561107757600080fd5b600061108584828501610eec565b91505092915050565b6000806000606084860312156110a357600080fd5b60006110b186828701610ed7565b935050602084013567ffffffffffffffff8111156110ce57600080fd5b6110da86828701610d3b565b92505060406110eb86828701610ed7565b9150509250925092565b600061110183836113e7565b905092915050565b60006111158383611424565b905092915050565b61112681611834565b82525050565b600061113782611771565b61114181856117c2565b93508360208202850161115385611751565b8060005b8581101561118f578484038952815161117085826110f5565b945061117b836117a8565b925060208a01995050600181019050611157565b50829750879550505050505092915050565b60006111ac8261177c565b6111b681856117d3565b9350836020820285016111c885611761565b8060005b8581101561120457848403895281516111e58582611109565b94506111f0836117b5565b925060208a019950506001810190506111cc565b50829750879550505050505092915050565b600061122182611787565b61122b81856117e4565b935061123b8185602086016118ad565b611244816118e0565b840191505092915050565b6112588161187a565b82525050565b60006112698261179d565b6112738185611806565b93506112838185602086016118ad565b61128c816118e0565b840191505092915050565b60006112a28261179d565b6112ac8185611817565b93506112bc8185602086016118ad565b80840191505092915050565b60006112d382611792565b6112dd81856117f5565b93506112ed8185602086016118ad565b6112f6816118e0565b840191505092915050565b600061130e601083611806565b91507f444154415f554e415641494c41424c45000000000000000000000000000000006000830152602082019050919050565b600061134e602d83611806565b91507f416d6f756e742069732073686f756c6420626520657175616c20746f2070617360008301527f736564206d73672e76616c7565000000000000000000000000000000000000006020830152604082019050919050565b60006113b4600783611817565b91507f53504f5450582f000000000000000000000000000000000000000000000000006000830152600782019050919050565b6000604083016000830151848203600086015261140482826112c8565b915050602083015161141960208601826114bb565b508091505092915050565b600060c083016000830151848203600086015261144182826112c8565b915050602083015161145660208601826114bb565b506040830151848203604086015261146e82826112c8565b915050606083015161148360608601826114bb565b506080830151848203608086015261149b82826112c8565b91505060a08301516114b060a08601826114bb565b508091505092915050565b6114c481611870565b82525050565b6114d381611870565b82525050565b60006114e4826113a7565b91506114f08284611297565b915081905092915050565b6000604082019050611510600083018561111d565b61151d60208301846114ca565b9392505050565b6000602082019050818103600083015261153e818461112c565b905092915050565b6000602082019050818103600083015261156081846111a1565b905092915050565b600060208201905081810360008301526115828184611216565b905092915050565b600060208201905061159f600083018461124f565b92915050565b600060408201905081810360008301526115bf818561125e565b90506115ce60208301846114ca565b9392505050565b600060808201905081810360008301526115ef818761125e565b90506115fe60208301866114ca565b61160b60408301856114ca565b611618606083018461111d565b95945050505050565b6000602082019050818103600083015261163a81611301565b9050919050565b6000602082019050818103600083015261165a81611341565b9050919050565b600060208201905061167660008301846114ca565b92915050565b6000604051905081810181811067ffffffffffffffff8211171561169f57600080fd5b8060405250919050565b600067ffffffffffffffff8211156116c057600080fd5b602082029050602081019050919050565b600067ffffffffffffffff8211156116e857600080fd5b602082029050602081019050919050565b600067ffffffffffffffff82111561171057600080fd5b601f19601f8301169050602081019050919050565b600067ffffffffffffffff82111561173c57600080fd5b601f19601f8301169050602081019050919050565b6000819050602082019050919050565b6000819050602082019050919050565b600081519050919050565b600081519050919050565b600081519050919050565b600081519050919050565b600081519050919050565b6000602082019050919050565b6000602082019050919050565b600082825260208201905092915050565b600082825260208201905092915050565b600082825260208201905092915050565b600082825260208201905092915050565b600082825260208201905092915050565b600081905092915050565b600061182d82611850565b9050919050565b600061183f82611850565b9050919050565b6000819050919050565b600073ffffffffffffffffffffffffffffffffffffffff82169050919050565b6000819050919050565b60006118858261188c565b9050919050565b600061189782611850565b9050919050565b82818337600083830152505050565b60005b838110156118cb5780820151818401526020810190506118b0565b838111156118da576000848401525b50505050565b6000601f19601f8301169050919050565b6118fa81611822565b811461190557600080fd5b50565b61191181611846565b811461191c57600080fd5b50565b6004811061192c57600080fd5b50565b61193881611870565b811461194357600080fd5b5056fe608060405234801561001057600080fd5b50336000806101000a81548173ffffffffffffffffffffffffffffffffffffffff021916908373ffffffffffffffffffffffffffffffffffffffff16021790555030600160006101000a81548173ffffffffffffffffffffffffffffffffffffffff021916908373ffffffffffffffffffffffffffffffffffffffff16021790555060006002819055506000600381905550611d4b806100b16000396000f3fe6080604052600436106100c25760003560e01c80636f9fb98a1161007f578063797b2da511610059578063797b2da51461024c5780637a89a1bf14610268578063d50d57ab146102aa578063e09dd734146102d5576100c2565b80636f9fb98a146101c7578063736fe565146101f25780637871db761461020e576100c2565b806309005228146100d45780633df08d66146100ff57806348aa461a1461012a5780635a861b4614610155578063664a8198146101805780636cf324ef1461019c575b34600260008282540192505081905550005b3480156100e057600080fd5b506100e9610300565b6040516100f691906119c3565b60405180910390f35b34801561010b57600080fd5b506101146104bd565b60405161012191906119e5565b60405180910390f35b34801561013657600080fd5b5061013f6107d2565b60405161014c9190611b0d565b60405180910390f35b34801561016157600080fd5b5061016a6107dc565b6040516101779190611b0d565b60405180910390f35b61019a60048036036101959190810190611486565b6107e2565b005b3480156101a857600080fd5b506101b1610b24565b6040516101be91906119a8565b60405180910390f35b3480156101d357600080fd5b506101dc610b4a565b6040516101e99190611b0d565b60405180910390f35b61020c600480360361020791908101906113f6565b610b69565b005b34801561021a57600080fd5b5061023560048036036102309190810190611501565b610c04565b604051610243929190611a07565b60405180910390f35b61026660048036036102619190810190611432565b610ccd565b005b34801561027457600080fd5b5061028f600480360361028a9190810190611501565b610f5f565b6040516102a196959493929190611a37565b60405180910390f35b3480156102b657600080fd5b506102bf611170565b6040516102cc91906119a8565b60405180910390f35b3480156102e157600080fd5b506102ea611195565b6040516102f79190611b0d565b60405180910390f35b60606000809054906101000a900473ffffffffffffffffffffffffffffffffffffffff166000809054906101000a900473ffffffffffffffffffffffffffffffffffffffff1673ffffffffffffffffffffffffffffffffffffffff163373ffffffffffffffffffffffffffffffffffffffff16146103b3576040517f08c379a00000000000000000000000000000000000000000000000000000000081526004016103aa90611aed565b60405180910390fd5b6005805480602002602001604051908101604052809291908181526020016000905b828210156104b35783829060005260206000209060020201604051806040016040529081600082018054600181600116156101000203166002900480601f0160208091040260200160405190810160405280929190818152602001828054600181600116156101000203166002900480156104915780601f1061046657610100808354040283529160200191610491565b820191906000526020600020905b81548152906001019060200180831161047457829003601f168201915b50505050508152602001600182015481525050815260200190600101906103d5565b5050505091505090565b60606000809054906101000a900473ffffffffffffffffffffffffffffffffffffffff166000809054906101000a900473ffffffffffffffffffffffffffffffffffffffff1673ffffffffffffffffffffffffffffffffffffffff163373ffffffffffffffffffffffffffffffffffffffff1614610570576040517f08c379a000000000000000000000000000000000000000000000000000000000815260040161056790611aed565b60405180910390fd5b6004805480602002602001604051908101604052809291908181526020016000905b828210156107c857838290600052602060002090600602016040518060c0016040529081600082018054600181600116156101000203166002900480601f01602080910402602001604051908101604052809291908181526020018280546001816001161561010002031660029004801561064e5780601f106106235761010080835404028352916020019161064e565b820191906000526020600020905b81548152906001019060200180831161063157829003601f168201915b5050505050815260200160018201548152602001600282018054600181600116156101000203166002900480601f0160208091040260200160405190810160405280929190818152602001828054600181600116156101000203166002900480156106fa5780601f106106cf576101008083540402835291602001916106fa565b820191906000526020600020905b8154815290600101906020018083116106dd57829003601f168201915b5050505050815260200160038201548152602001600482018054600181600116156101000203166002900480601f0160208091040260200160405190810160405280929190818152602001828054600181600116156101000203166002900480156107a65780601f1061077b576101008083540402835291602001916107a6565b820191906000526020600020905b81548152906001019060200180831161078957829003601f168201915b5050505050815260200160058201548152505081526020019060010190610592565b5050505091505090565b6000600354905090565b60035481565b6000831015610826576040517f08c379a000000000000000000000000000000000000000000000000000000000815260040161081d90611acd565b60405180910390fd5b60008090505b6005805490508110156109e1578460405160200161084a919061197a565b604051602081830303815290604052805190602001206005828154811061086d57fe5b906000526020600020906002020160000160405160200161088e9190611991565b604051602081830303815290604052805190602001201480156108cf575083600582815481106108ba57fe5b90600052602060002090600202016001015410155b156109d45783600582815481106108e257fe5b906000526020600020906002020160010154036005828154811061090257fe5b906000526020600020906002020160010181905550826003540160038190555060006005828154811061093157fe5b90600052602060002090600202016001015414156109d35760056001600580549050038154811061095e57fe5b90600052602060002090600202016005828154811061097957fe5b9060005260206000209060020201600082018160000190805460018160011615610100020316600290046109ae92919061119b565b506001820154816001015590505060058054809190600190036109d19190611222565b505b5b808060010191505061082c565b5060046040518060c001604052808681526020018581526020016040518060400160405280600481526020017f53656c6c0000000000000000000000000000000000000000000000000000000081525081526020014281526020016040518060400160405280600781526020017f5375636365737300000000000000000000000000000000000000000000000000815250815260200184815250908060018154018082558091505090600182039060005260206000209060060201600090919290919091506000820151816000019080519060200190610ac2929190611254565b50602082015181600101556040820151816002019080519060200190610ae9929190611254565b50606082015181600301556080820151816004019080519060200190610b10929190611254565b5060a0820151816005015550505050505050565b600160009054906101000a900473ffffffffffffffffffffffffffffffffffffffff1681565b60003073ffffffffffffffffffffffffffffffffffffffff1631905090565b806003541015610bae576040517f08c379a0000000000000000000000000000000000000000000000000000000008152600401610ba590611aad565b60405180910390fd5b8173ffffffffffffffffffffffffffffffffffffffff166108fc829081150290604051600060405180830381858888f19350505050158015610bf4573d6000803e3d6000fd5b5080600354036003819055505050565b60058181548110610c1157fe5b9060005260206000209060020201600091509050806000018054600181600116156101000203166002900480601f016020809104026020016040519081016040528092919081815260200182805460018160011615610100020316600290048015610cbd5780601f10610c9257610100808354040283529160200191610cbd565b820191906000526020600020905b815481529060010190602001808311610ca057829003601f168201915b5050505050908060010154905082565b600080905060008090505b600580549050811015610dab5783604051602001610cf6919061197a565b6040516020818303038152906040528051906020012060058281548110610d1957fe5b9060005260206000209060020201600001604051602001610d3a9190611991565b604051602081830303815290604052805190602001201415610d9e578260058281548110610d6457fe5b9060005260206000209060020201600101540160058281548110610d8457fe5b906000526020600020906002020160010181905550600191505b8080600101915050610cd8565b5080610e1e576005604051806040016040528085815260200184815250908060018154018082558091505090600182039060005260206000209060020201600090919290919091506000820151816000019080519060200190610e0f929190611254565b50602082015181600101555050505b60046040518060c001604052808581526020018481526020016040518060400160405280600381526020017f427579000000000000000000000000000000000000000000000000000000000081525081526020014281526020016040518060400160405280600781526020017f5375636365737300000000000000000000000000000000000000000000000000815250815260200134815250908060018154018082558091505090600182039060005260206000209060060201600090919290919091506000820151816000019080519060200190610efe929190611254565b50602082015181600101556040820151816002019080519060200190610f25929190611254565b50606082015181600301556080820151816004019080519060200190610f4c929190611254565b5060a08201518160050155505050505050565b60048181548110610f6c57fe5b9060005260206000209060060201600091509050806000018054600181600116156101000203166002900480601f0160208091040260200160405190810160405280929190818152602001828054600181600116156101000203166002900480156110185780601f10610fed57610100808354040283529160200191611018565b820191906000526020600020905b815481529060010190602001808311610ffb57829003601f168201915b505050505090806001015490806002018054600181600116156101000203166002900480601f0160208091040260200160405190810160405280929190818152602001828054600181600116156101000203166002900480156110bc5780601f10611091576101008083540402835291602001916110bc565b820191906000526020600020905b81548152906001019060200180831161109f57829003601f168201915b505050505090806003015490806004018054600181600116156101000203166002900480601f0160208091040260200160405190810160405280929190818152602001828054600181600116156101000203166002900480156111605780601f1061113557610100808354040283529160200191611160565b820191906000526020600020905b81548152906001019060200180831161114357829003601f168201915b5050505050908060050154905086565b6000809054906101000a900473ffffffffffffffffffffffffffffffffffffffff1681565b60025481565b828054600181600116156101000203166002900490600052602060002090601f016020900481019282601f106111d45780548555611211565b8280016001018555821561121157600052602060002091601f016020900482015b828111156112105782548255916001019190600101906111f5565b5b50905061121e91906112d4565b5090565b81548183558181111561124f5760020281600202836000526020600020918201910161124e91906112f9565b5b505050565b828054600181600116156101000203166002900490600052602060002090601f016020900481019282601f1061129557805160ff19168380011785556112c3565b828001600101855582156112c3579182015b828111156112c25782518255916020019190600101906112a7565b5b5090506112d091906112d4565b5090565b6112f691905b808211156112f25760008160009055506001016112da565b5090565b90565b61132d91905b8082111561132957600080820160006113189190611330565b6001820160009055506002016112ff565b5090565b90565b50805460018160011615610100020316600290046000825580601f106113565750611375565b601f01602090049060005260206000209081019061137491906112d4565b5b50565b60008135905061138781611cda565b92915050565b600082601f83011261139e57600080fd5b81356113b16113ac82611b55565b611b28565b915080825260208301602083018583830111156113cd57600080fd5b6113d8838284611c87565b50505092915050565b6000813590506113f081611cf1565b92915050565b6000806040838503121561140957600080fd5b600061141785828601611378565b9250506020611428858286016113e1565b9150509250929050565b6000806040838503121561144557600080fd5b600083013567ffffffffffffffff81111561145f57600080fd5b61146b8582860161138d565b925050602061147c858286016113e1565b9150509250929050565b6000806000806080858703121561149c57600080fd5b600085013567ffffffffffffffff8111156114b657600080fd5b6114c28782880161138d565b94505060206114d3878288016113e1565b93505060406114e4878288016113e1565b92505060606114f587828801611378565b91505092959194509250565b60006020828403121561151357600080fd5b6000611521848285016113e1565b91505092915050565b60006115368383611888565b905092915050565b600061154a83836118c5565b905092915050565b61155b81611c4b565b82525050565b600061156c82611bb6565b6115768185611bfc565b93508360208202850161158885611b81565b8060005b858110156115c457848403895281516115a5858261152a565b94506115b083611be2565b925060208a0199505060018101905061158c565b50829750879550505050505092915050565b60006115e182611bc1565b6115eb8185611c0d565b9350836020820285016115fd85611b91565b8060005b85811015611639578484038952815161161a858261153e565b945061162583611bef565b925060208a01995050600181019050611601565b50829750879550505050505092915050565b600061165682611bd7565b6116608185611c40565b9350611670818560208601611c96565b80840191505092915050565b600061168782611bcc565b6116918185611c1e565b93506116a1818560208601611c96565b6116aa81611cc9565b840191505092915050565b60006116c082611bcc565b6116ca8185611c2f565b93506116da818560208601611c96565b6116e381611cc9565b840191505092915050565b60008154600181166000811461170b576001811461173057611774565b607f600283041661171c8187611c40565b955060ff1983168652808601935050611774565b6002820461173e8187611c40565b955061174985611ba1565b60005b8281101561176b5781548189015260018201915060208101905061174c565b82880195505050505b505092915050565b6000611789603383611c2f565b91507f456e746572656420616d6f756e742073686f756c64206265206c65737320746860008301527f616e20636f6e74726163742062616c616e6365000000000000000000000000006020830152604082019050919050565b60006117ef602183611c2f565b91507f56616c75652073686f756c642062652067726561746572207468616e207a657260008301527f6f000000000000000000000000000000000000000000000000000000000000006020830152604082019050919050565b6000611855601683611c2f565b91507f496e76616c69642041757468656e7469636174696f6e000000000000000000006000830152602082019050919050565b600060408301600083015184820360008601526118a5828261167c565b91505060208301516118ba602086018261195c565b508091505092915050565b600060c08301600083015184820360008601526118e2828261167c565b91505060208301516118f7602086018261195c565b506040830151848203604086015261190f828261167c565b9150506060830151611924606086018261195c565b506080830151848203608086015261193c828261167c565b91505060a083015161195160a086018261195c565b508091505092915050565b61196581611c7d565b82525050565b61197481611c7d565b82525050565b6000611986828461164b565b915081905092915050565b600061199d82846116ee565b915081905092915050565b60006020820190506119bd6000830184611552565b92915050565b600060208201905081810360008301526119dd8184611561565b905092915050565b600060208201905081810360008301526119ff81846115d6565b905092915050565b60006040820190508181036000830152611a2181856116b5565b9050611a30602083018461196b565b9392505050565b600060c0820190508181036000830152611a5181896116b5565b9050611a60602083018861196b565b8181036040830152611a7281876116b5565b9050611a81606083018661196b565b8181036080830152611a9381856116b5565b9050611aa260a083018461196b565b979650505050505050565b60006020820190508181036000830152611ac68161177c565b9050919050565b60006020820190508181036000830152611ae6816117e2565b9050919050565b60006020820190508181036000830152611b0681611848565b9050919050565b6000602082019050611b22600083018461196b565b92915050565b6000604051905081810181811067ffffffffffffffff82111715611b4b57600080fd5b8060405250919050565b600067ffffffffffffffff821115611b6c57600080fd5b601f19601f8301169050602081019050919050565b6000819050602082019050919050565b6000819050602082019050919050565b60008190508160005260206000209050919050565b600081519050919050565b600081519050919050565b600081519050919050565b600081519050919050565b6000602082019050919050565b6000602082019050919050565b600082825260208201905092915050565b600082825260208201905092915050565b600082825260208201905092915050565b600082825260208201905092915050565b600081905092915050565b6000611c5682611c5d565b9050919050565b600073ffffffffffffffffffffffffffffffffffffffff82169050919050565b6000819050919050565b82818337600083830152505050565b60005b83811015611cb4578082015181840152602081019050611c99565b83811115611cc3576000848401525b50505050565b6000601f19601f8301169050919050565b611ce381611c4b565b8114611cee57600080fd5b50565b611cfa81611c7d565b8114611d0557600080fd5b5056fea365627a7a72305820ed67d6d943e4d2cac46e0ae0fb17a7e0e6766a273673ab86fd9a2141f2fdf4086c6578706572696d656e74616cf564736f6c634300050a0040a365627a7a72305820369697bbe8fe9c4a28febf6a7e145791f9170f0d1566c238ab7e63d6eab2281c6c6578706572696d656e74616cf564736f6c634300050a0040",
  "source": "pragma solidity ^0.5.0;\r\nimport './helpers/SafeMath.sol';\r\nimport './InvestmentAccount.sol';\r\nimport {usingBandProtocol, Oracle} from 'band-solidity/contracts/Band.sol';\r\npragma experimental ABIEncoderV2;\r\n\r\ncontract Manager is usingBandProtocol{\r\n    using SafeMath for *;\r\n\r\n     mapping  (address => InvestmentAccount) public InvestmentAccounts;\r\n\r\n    function createInvestmentAccount() public payable{\r\n        InvestmentAccount InvestmentAccountContract = new InvestmentAccount();\r\n        InvestmentAccounts[msg.sender] = InvestmentAccountContract;\r\n    }\r\n\r\n    function query(string memory _shareName) public payable returns(uint256){\r\n        return FINANCIAL.querySpotPrice(_shareName);\r\n    }\r\n\r\n    function sellAssets(uint _debitVal, string memory _shareName, uint256 _amount) public payable {\r\n        InvestmentAccounts[msg.sender].deductFromAssets(_shareName,_debitVal,_amount,msg.sender);\r\n    }\r\n\r\n    function withdrawAmount(uint _amount) public payable {\r\n        InvestmentAccounts[msg.sender].withdrawAmount(msg.sender,_amount);\r\n    }\r\n\r\n    function buyAssets(uint _creditVal, string memory _shareName, uint256 _amount) public payable {\r\n        InvestmentAccounts[msg.sender].addToAssets.value(msg.value)(_shareName,_creditVal);\r\n        require(msg.value == _amount, \"Amount is should be equal to passed msg.value\");\r\n    }\r\n\r\n    function getAssetPortfolio() public view returns (InvestmentAccount.AssetDetail[] memory){\r\n        return  InvestmentAccounts[msg.sender].getAssetPortfolio();\r\n    }\r\n\r\n    function getContractBalance() public view returns (uint256){\r\n        return InvestmentAccounts[msg.sender].getContractBalance();\r\n    }\r\n\r\n    function getInvestmentAccount() public view returns (InvestmentAccount){\r\n        return InvestmentAccounts[msg.sender];\r\n    }\r\n\r\n   function getTransactionsHistory() public view returns (InvestmentAccount.TransactionDetail[] memory){\r\n        return InvestmentAccounts[msg.sender].getTransactionsHistory();\r\n    }\r\n\r\n    function getInvestmentAccountBalance() public view returns (uint256){\r\n        return InvestmentAccounts[msg.sender].InvestAccountBalance();\r\n    }\r\n}\r\n",
  "sourcePath": "C:/Users/abhig/Documents/SIT764/latest/unisuper-blockchain-poc-new/contracts/Manager.sol",
  "compiler": {
    "name": "solc",
    "version": "0.5.10+commit.5a6ea5b1.Emscripten.clang"
  },
  "schemaVersion": "3.0.22",
  "updatedAt": "2020-02-10T10:38:09.535Z",
  "networkType": "ethereum",
  "devdoc": {
    "methods": {}
  },
  "userdoc": {
    "methods": {}
  }
}